{
  "contractName": "BrokerageContract",
  "abi": [
    {
      "inputs": [],
      "stateMutability": "nonpayable",
      "type": "constructor"
    },
    {
      "anonymous": false,
      "inputs": [
        {
          "indexed": true,
          "internalType": "address",
          "name": "_byWho",
          "type": "address"
        },
        {
          "indexed": true,
          "internalType": "uint256",
          "name": "time",
          "type": "uint256"
        }
      ],
      "name": "contractLocked",
      "type": "event"
    },
    {
      "anonymous": false,
      "inputs": [
        {
          "indexed": true,
          "internalType": "address",
          "name": "_byWho",
          "type": "address"
        },
        {
          "indexed": true,
          "internalType": "uint256",
          "name": "time",
          "type": "uint256"
        }
      ],
      "name": "contractUnLocked",
      "type": "event"
    },
    {
      "anonymous": false,
      "inputs": [
        {
          "indexed": false,
          "internalType": "string",
          "name": "str",
          "type": "string"
        },
        {
          "indexed": false,
          "internalType": "uint256",
          "name": "num",
          "type": "uint256"
        },
        {
          "indexed": false,
          "internalType": "address",
          "name": "adr",
          "type": "address"
        }
      ],
      "name": "dd",
      "type": "event"
    },
    {
      "anonymous": false,
      "inputs": [
        {
          "indexed": true,
          "internalType": "string",
          "name": "error",
          "type": "string"
        },
        {
          "indexed": false,
          "internalType": "uint256",
          "name": "time",
          "type": "uint256"
        }
      ],
      "name": "error",
      "type": "event"
    },
    {
      "anonymous": false,
      "inputs": [
        {
          "indexed": true,
          "internalType": "address",
          "name": "approver",
          "type": "address"
        },
        {
          "indexed": true,
          "internalType": "uint256",
          "name": "time",
          "type": "uint256"
        }
      ],
      "name": "payerApproved",
      "type": "event"
    },
    {
      "anonymous": false,
      "inputs": [
        {
          "indexed": true,
          "internalType": "address",
          "name": "approver",
          "type": "address"
        },
        {
          "indexed": true,
          "internalType": "uint256",
          "name": "time",
          "type": "uint256"
        }
      ],
      "name": "payerDontApprove",
      "type": "event"
    },
    {
      "anonymous": false,
      "inputs": [
        {
          "indexed": true,
          "internalType": "address",
          "name": "_payer",
          "type": "address"
        },
        {
          "indexed": false,
          "internalType": "uint256",
          "name": "_amount",
          "type": "uint256"
        },
        {
          "indexed": true,
          "internalType": "uint256",
          "name": "_date",
          "type": "uint256"
        }
      ],
      "name": "tokenFrozen",
      "type": "event"
    },
    {
      "anonymous": false,
      "inputs": [
        {
          "indexed": true,
          "internalType": "string",
          "name": "toWho",
          "type": "string"
        },
        {
          "indexed": false,
          "internalType": "uint256",
          "name": "amount",
          "type": "uint256"
        },
        {
          "indexed": false,
          "internalType": "uint256",
          "name": "time",
          "type": "uint256"
        }
      ],
      "name": "unfrozen",
      "type": "event"
    },
    {
      "anonymous": false,
      "inputs": [
        {
          "indexed": true,
          "internalType": "address",
          "name": "_byWho",
          "type": "address"
        },
        {
          "indexed": true,
          "internalType": "uint256",
          "name": "time",
          "type": "uint256"
        }
      ],
      "name": "userContractLocked",
      "type": "event"
    },
    {
      "anonymous": false,
      "inputs": [
        {
          "indexed": true,
          "internalType": "address",
          "name": "_byWho",
          "type": "address"
        },
        {
          "indexed": true,
          "internalType": "uint256",
          "name": "time",
          "type": "uint256"
        }
      ],
      "name": "userContractUnLocked",
      "type": "event"
    },
    {
      "inputs": [],
      "name": "admin",
      "outputs": [
        {
          "internalType": "address",
          "name": "",
          "type": "address"
        }
      ],
      "stateMutability": "view",
      "type": "function"
    },
    {
      "inputs": [],
      "name": "brokerAddress",
      "outputs": [
        {
          "internalType": "address",
          "name": "",
          "type": "address"
        }
      ],
      "stateMutability": "view",
      "type": "function"
    },
    {
      "inputs": [],
      "name": "duration",
      "outputs": [
        {
          "internalType": "uint256",
          "name": "",
          "type": "uint256"
        }
      ],
      "stateMutability": "view",
      "type": "function"
    },
    {
      "inputs": [],
      "name": "endDuration",
      "outputs": [
        {
          "internalType": "uint256",
          "name": "",
          "type": "uint256"
        }
      ],
      "stateMutability": "view",
      "type": "function"
    },
    {
      "inputs": [],
      "name": "owner",
      "outputs": [
        {
          "internalType": "address",
          "name": "",
          "type": "address"
        }
      ],
      "stateMutability": "view",
      "type": "function"
    },
    {
      "inputs": [],
      "name": "payerAddress",
      "outputs": [
        {
          "internalType": "address",
          "name": "",
          "type": "address"
        }
      ],
      "stateMutability": "view",
      "type": "function"
    },
    {
      "inputs": [],
      "name": "token",
      "outputs": [
        {
          "internalType": "contract IERC20",
          "name": "",
          "type": "address"
        }
      ],
      "stateMutability": "view",
      "type": "function"
    },
    {
      "inputs": [],
      "name": "totalAmount",
      "outputs": [
        {
          "internalType": "uint256",
          "name": "",
          "type": "uint256"
        }
      ],
      "stateMutability": "view",
      "type": "function"
    },
    {
      "stateMutability": "payable",
      "type": "receive"
    },
    {
      "inputs": [
        {
          "internalType": "uint256",
          "name": "_amount",
          "type": "uint256"
        }
      ],
      "name": "adminSetTotalAmount",
      "outputs": [],
      "stateMutability": "nonpayable",
      "type": "function"
    },
    {
      "inputs": [
        {
          "internalType": "address",
          "name": "_admin",
          "type": "address"
        }
      ],
      "name": "setAdmin",
      "outputs": [],
      "stateMutability": "nonpayable",
      "type": "function"
    },
    {
      "inputs": [
        {
          "internalType": "address",
          "name": "_broker",
          "type": "address"
        }
      ],
      "name": "setBroker",
      "outputs": [],
      "stateMutability": "nonpayable",
      "type": "function"
    },
    {
      "inputs": [
        {
          "internalType": "uint256",
          "name": "_amount",
          "type": "uint256"
        }
      ],
      "name": "setBrokerAndAmount",
      "outputs": [],
      "stateMutability": "nonpayable",
      "type": "function"
    },
    {
      "inputs": [],
      "name": "setPayerAndFreeze",
      "outputs": [],
      "stateMutability": "nonpayable",
      "type": "function"
    },
    {
      "inputs": [
        {
          "internalType": "address",
          "name": "_payer",
          "type": "address"
        }
      ],
      "name": "adminSetPayerAddress",
      "outputs": [],
      "stateMutability": "nonpayable",
      "type": "function"
    },
    {
      "inputs": [],
      "name": "init",
      "outputs": [],
      "stateMutability": "nonpayable",
      "type": "function"
    },
    {
      "inputs": [
        {
          "internalType": "address",
          "name": "_tokenAddress",
          "type": "address"
        }
      ],
      "name": "setToken",
      "outputs": [],
      "stateMutability": "nonpayable",
      "type": "function"
    },
    {
      "inputs": [],
      "name": "freezeToken",
      "outputs": [],
      "stateMutability": "nonpayable",
      "type": "function"
    },
    {
      "inputs": [],
      "name": "payerApproves",
      "outputs": [],
      "stateMutability": "nonpayable",
      "type": "function"
    },
    {
      "inputs": [],
      "name": "payerApprovesNot",
      "outputs": [],
      "stateMutability": "nonpayable",
      "type": "function"
    },
    {
      "inputs": [],
      "name": "payerWithdraw",
      "outputs": [],
      "stateMutability": "nonpayable",
      "type": "function"
    },
    {
      "inputs": [],
      "name": "checkDuration",
      "outputs": [
        {
          "internalType": "uint256",
          "name": "",
          "type": "uint256"
        }
      ],
      "stateMutability": "view",
      "type": "function"
    },
    {
      "inputs": [],
      "name": "timeNow",
      "outputs": [
        {
          "internalType": "uint256",
          "name": "",
          "type": "uint256"
        }
      ],
      "stateMutability": "view",
      "type": "function"
    },
    {
      "inputs": [
        {
          "internalType": "uint256",
          "name": "_duration",
          "type": "uint256"
        }
      ],
      "name": "setDuration",
      "outputs": [],
      "stateMutability": "nonpayable",
      "type": "function"
    },
    {
      "inputs": [],
      "name": "lockContract",
      "outputs": [],
      "stateMutability": "nonpayable",
      "type": "function"
    },
    {
      "inputs": [],
      "name": "unlockContract",
      "outputs": [],
      "stateMutability": "nonpayable",
      "type": "function"
    },
    {
      "inputs": [],
      "name": "userLockContract",
      "outputs": [],
      "stateMutability": "nonpayable",
      "type": "function"
    },
    {
      "inputs": [],
      "name": "userUnlockContract",
      "outputs": [],
      "stateMutability": "nonpayable",
      "type": "function"
    },
    {
      "inputs": [
        {
          "internalType": "address",
          "name": "_tokenAddress",
          "type": "address"
        }
      ],
      "name": "withrawOtherTokens",
      "outputs": [],
      "stateMutability": "nonpayable",
      "type": "function"
    }
  ],
  "bytecode": "0x6080604052623b53806008556000600960006101000a81548160ff0219169083151502179055506000600960016101000a81548160ff02191690831515021790555034801561004d57600080fd5b50336000806101000a81548173ffffffffffffffffffffffffffffffffffffffff021916908373ffffffffffffffffffffffffffffffffffffffff16021790555073c0526733fb1cc4ddf3e8f034ede88a1e76899015600160006101000a81548173ffffffffffffffffffffffffffffffffffffffff021916908373ffffffffffffffffffffffffffffffffffffffff1602179055506136c2806100f26000396000f3fe6080604052600436106101bb5760003560e01c806378f80b2b116100ec578063e1c7392a1161008a578063f6be71d111610064578063f6be71d11461050d578063f851a44014610536578063fb05337a14610561578063fc0c546a14610578576101c2565b8063e1c7392a146104a2578063eb1cc664146104b9578063edc0b0c2146104e4576101c2565b80638da5cb5b116100c65780638da5cb5b146103fa578063a079760e14610425578063bf0d02131461044e578063d95660be14610477576101c2565b806378f80b2b146103b55780637930cea2146103cc5780638ccbd6da146103e3576101c2565b806345eb92eb1161015957806356a3c3af1161013357806356a3c3af14610347578063704b6c021461035e578063753868e3146103875780637605bb951461039e576101c2565b806345eb92eb146102c857806350831cb2146102f15780635089f7961461031c576101c2565b80631f48d155116101955780631f48d155146102465780631f4ce5a21461026f57806322f0f2f9146102865780632b2f1e141461029d576101c2565b80630fb5a6b4146101c7578063144fa6d7146101f25780631a39d8ef1461021b576101c2565b366101c257005b600080fd5b3480156101d357600080fd5b506101dc6105a3565b6040516101e99190612934565b60405180910390f35b3480156101fe57600080fd5b50610219600480360381019061021491906129b2565b6105a9565b005b34801561022757600080fd5b50610230610764565b60405161023d9190612934565b60405180910390f35b34801561025257600080fd5b5061026d60048036038101906102689190612a0b565b61076a565b005b34801561027b57600080fd5b506102846108ac565b005b34801561029257600080fd5b5061029b610ac1565b005b3480156102a957600080fd5b506102b2610c08565b6040516102bf9190612a47565b60405180910390f35b3480156102d457600080fd5b506102ef60048036038101906102ea91906129b2565b610c2e565b005b3480156102fd57600080fd5b50610306610da8565b6040516103139190612934565b60405180910390f35b34801561032857600080fd5b50610331610db2565b60405161033e9190612a47565b60405180910390f35b34801561035357600080fd5b5061035c610dd8565b005b34801561036a57600080fd5b50610385600480360381019061038091906129b2565b610fcf565b005b34801561039357600080fd5b5061039c611149565b005b3480156103aa57600080fd5b506103b3611340565b005b3480156103c157600080fd5b506103ca611557565b005b3480156103d857600080fd5b506103e161169e565b005b3480156103ef57600080fd5b506103f86116fa565b005b34801561040657600080fd5b5061040f611916565b60405161041c9190612a47565b60405180910390f35b34801561043157600080fd5b5061044c600480360381019061044791906129b2565b61193a565b005b34801561045a57600080fd5b50610475600480360381019061047091906129b2565b611bff565b005b34801561048357600080fd5b5061048c611d79565b6040516104999190612934565b60405180910390f35b3480156104ae57600080fd5b506104b7611d81565b005b3480156104c557600080fd5b506104ce611ea8565b6040516104db9190612934565b60405180910390f35b3480156104f057600080fd5b5061050b60048036038101906105069190612a0b565b611eae565b005b34801561051957600080fd5b50610534600480360381019061052f9190612a0b565b611fda565b005b34801561054257600080fd5b5061054b6120cc565b6040516105589190612a47565b60405180910390f35b34801561056d57600080fd5b506105766120f2565b005b34801561058457600080fd5b5061058d61228f565b60405161059a9190612ac1565b60405180910390f35b60085481565b600160009054906101000a900473ffffffffffffffffffffffffffffffffffffffff1673ffffffffffffffffffffffffffffffffffffffff163373ffffffffffffffffffffffffffffffffffffffff161480610650575060008054906101000a900473ffffffffffffffffffffffffffffffffffffffff1673ffffffffffffffffffffffffffffffffffffffff163373ffffffffffffffffffffffffffffffffffffffff16145b61068f576040517f08c379a000000000000000000000000000000000000000000000000000000000815260040161068690612b39565b60405180910390fd5b600960009054906101000a900460ff16156106df576040517f08c379a00000000000000000000000000000000000000000000000000000000081526004016106d690612ba5565b60405180910390fd5b80600560006101000a81548173ffffffffffffffffffffffffffffffffffffffff021916908373ffffffffffffffffffffffffffffffffffffffff16021790555080600660006101000a81548173ffffffffffffffffffffffffffffffffffffffff021916908373ffffffffffffffffffffffffffffffffffffffff16021790555050565b60045481565b600260009054906101000a900473ffffffffffffffffffffffffffffffffffffffff1673ffffffffffffffffffffffffffffffffffffffff163373ffffffffffffffffffffffffffffffffffffffff1614806108135750600160009054906101000a900473ffffffffffffffffffffffffffffffffffffffff1673ffffffffffffffffffffffffffffffffffffffff163373ffffffffffffffffffffffffffffffffffffffff16145b610852576040517f08c379a000000000000000000000000000000000000000000000000000000000815260040161084990612c11565b60405180910390fd5b600960009054906101000a900460ff16156108a2576040517f08c379a000000000000000000000000000000000000000000000000000000000815260040161089990612ba5565b60405180910390fd5b8060048190555050565b600360009054906101000a900473ffffffffffffffffffffffffffffffffffffffff1673ffffffffffffffffffffffffffffffffffffffff163373ffffffffffffffffffffffffffffffffffffffff1614806109555750600160009054906101000a900473ffffffffffffffffffffffffffffffffffffffff1673ffffffffffffffffffffffffffffffffffffffff163373ffffffffffffffffffffffffffffffffffffffff16145b610994576040517f08c379a000000000000000000000000000000000000000000000000000000000815260040161098b90612c7d565b60405180910390fd5b6000600560009054906101000a900473ffffffffffffffffffffffffffffffffffffffff1673ffffffffffffffffffffffffffffffffffffffff166370a08231306040518263ffffffff1660e01b81526004016109f19190612a47565b602060405180830381865afa158015610a0e573d6000803e3d6000fd5b505050506040513d601f19601f82011682018060405250810190610a329190612cb2565b1015610a73576040517f08c379a0000000000000000000000000000000000000000000000000000000008152600401610a6a90612d2b565b60405180910390fd5b610a7b6122b5565b423373ffffffffffffffffffffffffffffffffffffffff167f42c7d9191d79a480678c1fafe32a8efd473c3a863c62ba06a35d74ac7adc74ae60405160405180910390a3565b600160009054906101000a900473ffffffffffffffffffffffffffffffffffffffff1673ffffffffffffffffffffffffffffffffffffffff163373ffffffffffffffffffffffffffffffffffffffff161480610b68575060008054906101000a900473ffffffffffffffffffffffffffffffffffffffff1673ffffffffffffffffffffffffffffffffffffffff163373ffffffffffffffffffffffffffffffffffffffff16145b610ba7576040517f08c379a0000000000000000000000000000000000000000000000000000000008152600401610b9e90612b39565b60405180910390fd5b6000600960006101000a81548160ff021916908315150217905550423373ffffffffffffffffffffffffffffffffffffffff167f145088ec6699ba4c1121759c27546480698f4624ac8d41265f8338c551ea4c3e60405160405180910390a3565b600360009054906101000a900473ffffffffffffffffffffffffffffffffffffffff1681565b600160009054906101000a900473ffffffffffffffffffffffffffffffffffffffff1673ffffffffffffffffffffffffffffffffffffffff163373ffffffffffffffffffffffffffffffffffffffff161480610cd5575060008054906101000a900473ffffffffffffffffffffffffffffffffffffffff1673ffffffffffffffffffffffffffffffffffffffff163373ffffffffffffffffffffffffffffffffffffffff16145b610d14576040517f08c379a0000000000000000000000000000000000000000000000000000000008152600401610d0b90612b39565b60405180910390fd5b600960009054906101000a900460ff1615610d64576040517f08c379a0000000000000000000000000000000000000000000000000000000008152600401610d5b90612ba5565b60405180910390fd5b80600360006101000a81548173ffffffffffffffffffffffffffffffffffffffff021916908373ffffffffffffffffffffffffffffffffffffffff16021790555050565b6000600754905090565b600260009054906101000a900473ffffffffffffffffffffffffffffffffffffffff1681565b600260009054906101000a900473ffffffffffffffffffffffffffffffffffffffff1673ffffffffffffffffffffffffffffffffffffffff163373ffffffffffffffffffffffffffffffffffffffff161480610e815750600160009054906101000a900473ffffffffffffffffffffffffffffffffffffffff1673ffffffffffffffffffffffffffffffffffffffff163373ffffffffffffffffffffffffffffffffffffffff16145b80610ed95750600360009054906101000a900473ffffffffffffffffffffffffffffffffffffffff1673ffffffffffffffffffffffffffffffffffffffff163373ffffffffffffffffffffffffffffffffffffffff16145b80610f2f575060008054906101000a900473ffffffffffffffffffffffffffffffffffffffff1673ffffffffffffffffffffffffffffffffffffffff163373ffffffffffffffffffffffffffffffffffffffff16145b610f6e576040517f08c379a0000000000000000000000000000000000000000000000000000000008152600401610f6590612d97565b60405180910390fd5b6001600960016101000a81548160ff021916908315150217905550423373ffffffffffffffffffffffffffffffffffffffff167fdd72066a1462e865b9dfbf6cecc980688f414891ad2f08064d3cf003c520b1a360405160405180910390a3565b600160009054906101000a900473ffffffffffffffffffffffffffffffffffffffff1673ffffffffffffffffffffffffffffffffffffffff163373ffffffffffffffffffffffffffffffffffffffff161480611076575060008054906101000a900473ffffffffffffffffffffffffffffffffffffffff1673ffffffffffffffffffffffffffffffffffffffff163373ffffffffffffffffffffffffffffffffffffffff16145b6110b5576040517f08c379a00000000000000000000000000000000000000000000000000000000081526004016110ac90612b39565b60405180910390fd5b600960009054906101000a900460ff1615611105576040517f08c379a00000000000000000000000000000000000000000000000000000000081526004016110fc90612ba5565b60405180910390fd5b80600160006101000a81548173ffffffffffffffffffffffffffffffffffffffff021916908373ffffffffffffffffffffffffffffffffffffffff16021790555050565b600260009054906101000a900473ffffffffffffffffffffffffffffffffffffffff1673ffffffffffffffffffffffffffffffffffffffff163373ffffffffffffffffffffffffffffffffffffffff1614806111f25750600160009054906101000a900473ffffffffffffffffffffffffffffffffffffffff1673ffffffffffffffffffffffffffffffffffffffff163373ffffffffffffffffffffffffffffffffffffffff16145b8061124a5750600360009054906101000a900473ffffffffffffffffffffffffffffffffffffffff1673ffffffffffffffffffffffffffffffffffffffff163373ffffffffffffffffffffffffffffffffffffffff16145b806112a0575060008054906101000a900473ffffffffffffffffffffffffffffffffffffffff1673ffffffffffffffffffffffffffffffffffffffff163373ffffffffffffffffffffffffffffffffffffffff16145b6112df576040517f08c379a00000000000000000000000000000000000000000000000000000000081526004016112d690612d97565b60405180910390fd5b6001600960006101000a81548160ff021916908315150217905550423373ffffffffffffffffffffffffffffffffffffffff167f145088ec6699ba4c1121759c27546480698f4624ac8d41265f8338c551ea4c3e60405160405180910390a3565b600360009054906101000a900473ffffffffffffffffffffffffffffffffffffffff1673ffffffffffffffffffffffffffffffffffffffff163373ffffffffffffffffffffffffffffffffffffffff1614806113e95750600160009054906101000a900473ffffffffffffffffffffffffffffffffffffffff1673ffffffffffffffffffffffffffffffffffffffff163373ffffffffffffffffffffffffffffffffffffffff16145b611428576040517f08c379a000000000000000000000000000000000000000000000000000000000815260040161141f90612c7d565b60405180910390fd5b6000600560009054906101000a900473ffffffffffffffffffffffffffffffffffffffff1673ffffffffffffffffffffffffffffffffffffffff166370a08231306040518263ffffffff1660e01b81526004016114859190612a47565b602060405180830381865afa1580156114a2573d6000803e3d6000fd5b505050506040513d601f19601f820116820180604052508101906114c69190612cb2565b1015611507576040517f08c379a00000000000000000000000000000000000000000000000000000000081526004016114fe90612d2b565b60405180910390fd5b6115116001612306565b423373ffffffffffffffffffffffffffffffffffffffff167ff028af0fe992d515f420a1f22fde811854007615cc04ade97ddf9d87667e45b560405160405180910390a3565b600160009054906101000a900473ffffffffffffffffffffffffffffffffffffffff1673ffffffffffffffffffffffffffffffffffffffff163373ffffffffffffffffffffffffffffffffffffffff1614806115fe575060008054906101000a900473ffffffffffffffffffffffffffffffffffffffff1673ffffffffffffffffffffffffffffffffffffffff163373ffffffffffffffffffffffffffffffffffffffff16145b61163d576040517f08c379a000000000000000000000000000000000000000000000000000000000815260040161163490612b39565b60405180910390fd5b6000600960016101000a81548160ff021916908315150217905550423373ffffffffffffffffffffffffffffffffffffffff167f3ceffeac907da7324912dd3df0ed271d8ba53cb5e390dfb8f4d86ee30f34093d60405160405180910390a3565b600960009054906101000a900460ff16156116ee576040517f08c379a00000000000000000000000000000000000000000000000000000000081526004016116e590612ba5565b60405180910390fd5b6116f86000612306565b565b600454600560009054906101000a900473ffffffffffffffffffffffffffffffffffffffff1673ffffffffffffffffffffffffffffffffffffffff166370a08231600360009054906101000a900473ffffffffffffffffffffffffffffffffffffffff166040518263ffffffff1660e01b815260040161177a9190612a47565b602060405180830381865afa158015611797573d6000803e3d6000fd5b505050506040513d601f19601f820116820180604052508101906117bb9190612cb2565b10156117fc576040517f08c379a00000000000000000000000000000000000000000000000000000000081526004016117f390612e03565b60405180910390fd5b600560009054906101000a900473ffffffffffffffffffffffffffffffffffffffff1673ffffffffffffffffffffffffffffffffffffffff166323b872dd33306004546040518463ffffffff1660e01b815260040161185d93929190612e23565b6020604051808303816000875af115801561187c573d6000803e3d6000fd5b505050506040513d601f19601f820116820180604052508101906118a09190612e92565b5042600360009054906101000a900473ffffffffffffffffffffffffffffffffffffffff1673ffffffffffffffffffffffffffffffffffffffff167fc78ef9d1af497be6643847d6cb3eebdfcf4af9bf823596fd2dc3ef5b54bfc67160045460405161190c9190612934565b60405180910390a3565b60008054906101000a900473ffffffffffffffffffffffffffffffffffffffff1681565b600160009054906101000a900473ffffffffffffffffffffffffffffffffffffffff1673ffffffffffffffffffffffffffffffffffffffff163373ffffffffffffffffffffffffffffffffffffffff1614806119e1575060008054906101000a900473ffffffffffffffffffffffffffffffffffffffff1673ffffffffffffffffffffffffffffffffffffffff163373ffffffffffffffffffffffffffffffffffffffff16145b611a20576040517f08c379a0000000000000000000000000000000000000000000000000000000008152600401611a1790612b39565b60405180910390fd5b600081905060008173ffffffffffffffffffffffffffffffffffffffff166370a08231306040518263ffffffff1660e01b8152600401611a609190612a47565b602060405180830381865afa158015611a7d573d6000803e3d6000fd5b505050506040513d601f19601f82011682018060405250810190611aa19190612cb2565b11611ae1576040517f08c379a0000000000000000000000000000000000000000000000000000000008152600401611ad890612f31565b60405180910390fd5b8073ffffffffffffffffffffffffffffffffffffffff1663a9059cbb600160009054906101000a900473ffffffffffffffffffffffffffffffffffffffff168373ffffffffffffffffffffffffffffffffffffffff166370a08231306040518263ffffffff1660e01b8152600401611b599190612a47565b602060405180830381865afa158015611b76573d6000803e3d6000fd5b505050506040513d601f19601f82011682018060405250810190611b9a9190612cb2565b6040518363ffffffff1660e01b8152600401611bb7929190612f51565b6020604051808303816000875af1158015611bd6573d6000803e3d6000fd5b505050506040513d601f19601f82011682018060405250810190611bfa9190612e92565b505050565b600160009054906101000a900473ffffffffffffffffffffffffffffffffffffffff1673ffffffffffffffffffffffffffffffffffffffff163373ffffffffffffffffffffffffffffffffffffffff161480611ca6575060008054906101000a900473ffffffffffffffffffffffffffffffffffffffff1673ffffffffffffffffffffffffffffffffffffffff163373ffffffffffffffffffffffffffffffffffffffff16145b611ce5576040517f08c379a0000000000000000000000000000000000000000000000000000000008152600401611cdc90612b39565b60405180910390fd5b600960009054906101000a900460ff1615611d35576040517f08c379a0000000000000000000000000000000000000000000000000000000008152600401611d2c90612ba5565b60405180910390fd5b80600260006101000a81548173ffffffffffffffffffffffffffffffffffffffff021916908373ffffffffffffffffffffffffffffffffffffffff16021790555050565b600042905090565b73ab8483f64d9c6d1ecf9b849ae677dd3315835cb2600260006101000a81548173ffffffffffffffffffffffffffffffffffffffff021916908373ffffffffffffffffffffffffffffffffffffffff160217905550734b20993bc481177ec7e8f571cecae8a9e22c02db600360006101000a81548173ffffffffffffffffffffffffffffffffffffffff021916908373ffffffffffffffffffffffffffffffffffffffff160217905550735b38da6a701c568545dcfcb03fcb875f56beddc4600160006101000a81548173ffffffffffffffffffffffffffffffffffffffff021916908373ffffffffffffffffffffffffffffffffffffffff1602179055506103e8600481905550611ea673d9145cce52d386f254917e481eb44e9943f391386105a9565b565b60075481565b600960009054906101000a900460ff1615611efe576040517f08c379a0000000000000000000000000000000000000000000000000000000008152600401611ef590612ba5565b60405180910390fd5b600073ffffffffffffffffffffffffffffffffffffffff16600260009054906101000a900473ffffffffffffffffffffffffffffffffffffffff1673ffffffffffffffffffffffffffffffffffffffff1614611f8f576040517f08c379a0000000000000000000000000000000000000000000000000000000008152600401611f8690612fc6565b60405180910390fd5b33600260006101000a81548173ffffffffffffffffffffffffffffffffffffffff021916908373ffffffffffffffffffffffffffffffffffffffff1602179055508060048190555050565b600260009054906101000a900473ffffffffffffffffffffffffffffffffffffffff1673ffffffffffffffffffffffffffffffffffffffff163373ffffffffffffffffffffffffffffffffffffffff1614806120835750600160009054906101000a900473ffffffffffffffffffffffffffffffffffffffff1673ffffffffffffffffffffffffffffffffffffffff163373ffffffffffffffffffffffffffffffffffffffff16145b6120c2576040517f08c379a00000000000000000000000000000000000000000000000000000000081526004016120b990612c11565b60405180910390fd5b8060088190555050565b600160009054906101000a900473ffffffffffffffffffffffffffffffffffffffff1681565b600960009054906101000a900460ff1615612142576040517f08c379a000000000000000000000000000000000000000000000000000000000815260040161213990612ba5565b60405180910390fd5b600454600560009054906101000a900473ffffffffffffffffffffffffffffffffffffffff1673ffffffffffffffffffffffffffffffffffffffff166370a08231600360009054906101000a900473ffffffffffffffffffffffffffffffffffffffff166040518263ffffffff1660e01b81526004016121c29190612a47565b602060405180830381865afa1580156121df573d6000803e3d6000fd5b505050506040513d601f19601f820116820180604052508101906122039190612cb2565b1015612244576040517f08c379a000000000000000000000000000000000000000000000000000000000815260040161223b90612e03565b60405180910390fd5b33600360006101000a81548173ffffffffffffffffffffffffffffffffffffffff021916908373ffffffffffffffffffffffffffffffffffffffff16021790555061228d6116fa565b565b600560009054906101000a900473ffffffffffffffffffffffffffffffffffffffff1681565b426008546122c39190613015565b6007819055507ff3a44ed16912754c0fb97a84582b1182e46fb3ba1c765fe0ff9be0995bc381b3600754336040516122fc9291906130b7565b60405180910390a1565b600960009054906101000a900460ff1615612356576040517f08c379a000000000000000000000000000000000000000000000000000000000815260040161234d90612ba5565b60405180910390fd5b600960019054906101000a900460ff16156123a6576040517f08c379a000000000000000000000000000000000000000000000000000000000815260040161239d9061313f565b60405180910390fd5b600454600560009054906101000a900473ffffffffffffffffffffffffffffffffffffffff1673ffffffffffffffffffffffffffffffffffffffff166370a08231306040518263ffffffff1660e01b81526004016124049190612a47565b602060405180830381865afa158015612421573d6000803e3d6000fd5b505050506040513d601f19601f820116820180604052508101906124459190612cb2565b1015612486576040517f08c379a000000000000000000000000000000000000000000000000000000000815260040161247d906131ab565b60405180910390fd5b801561274a576000601460045461249d91906131fa565b90507ff3a44ed16912754c0fb97a84582b1182e46fb3ba1c765fe0ff9be0995bc381b381336040516124d0929190613277565b60405180910390a1600560009054906101000a900473ffffffffffffffffffffffffffffffffffffffff1673ffffffffffffffffffffffffffffffffffffffff1663a9059cbb600160009054906101000a900473ffffffffffffffffffffffffffffffffffffffff16836040518363ffffffff1660e01b81526004016125579291906132d4565b6020604051808303816000875af1158015612576573d6000803e3d6000fd5b505050506040513d601f19601f8201168201806040525081019061259a9190612e92565b506040516125a790613354565b60405180910390207f9aca13c2e754076c1dbb158dfcb5c085723b126c73b8cf6732f03f56b4cec42482426040516125e0929190613369565b60405180910390a26000816004546125f89190613392565b90507ff3a44ed16912754c0fb97a84582b1182e46fb3ba1c765fe0ff9be0995bc381b3813360405161262b929190613412565b60405180910390a1600560009054906101000a900473ffffffffffffffffffffffffffffffffffffffff1673ffffffffffffffffffffffffffffffffffffffff1663a9059cbb600260009054906101000a900473ffffffffffffffffffffffffffffffffffffffff16836040518363ffffffff1660e01b81526004016126b29291906132d4565b6020604051808303816000875af11580156126d1573d6000803e3d6000fd5b505050506040513d601f19601f820116820180604052508101906126f59190612e92565b506040516127029061349a565b60405180910390207f9aca13c2e754076c1dbb158dfcb5c085723b126c73b8cf6732f03f56b4cec424824260405161273b929190613369565b60405180910390a25050612918565b7ff3a44ed16912754c0fb97a84582b1182e46fb3ba1c765fe0ff9be0995bc381b3423360405161277b9291906134fb565b60405180910390a17ff3a44ed16912754c0fb97a84582b1182e46fb3ba1c765fe0ff9be0995bc381b3600754336040516127b6929190613583565b60405180910390a1600754421015612803576040517f08c379a00000000000000000000000000000000000000000000000000000000081526004016127fa9061360b565b60405180910390fd5b600560009054906101000a900473ffffffffffffffffffffffffffffffffffffffff1673ffffffffffffffffffffffffffffffffffffffff1663a9059cbb600360009054906101000a900473ffffffffffffffffffffffffffffffffffffffff166004546040518363ffffffff1660e01b81526004016128849291906132d4565b6020604051808303816000875af11580156128a3573d6000803e3d6000fd5b505050506040513d601f19601f820116820180604052508101906128c79190612e92565b506040516128d490613677565b60405180910390207f9aca13c2e754076c1dbb158dfcb5c085723b126c73b8cf6732f03f56b4cec4246004544260405161290f929190613369565b60405180910390a25b50565b6000819050919050565b61292e8161291b565b82525050565b60006020820190506129496000830184612925565b92915050565b600080fd5b600073ffffffffffffffffffffffffffffffffffffffff82169050919050565b600061297f82612954565b9050919050565b61298f81612974565b811461299a57600080fd5b50565b6000813590506129ac81612986565b92915050565b6000602082840312156129c8576129c761294f565b5b60006129d68482850161299d565b91505092915050565b6129e88161291b565b81146129f357600080fd5b50565b600081359050612a05816129df565b92915050565b600060208284031215612a2157612a2061294f565b5b6000612a2f848285016129f6565b91505092915050565b612a4181612974565b82525050565b6000602082019050612a5c6000830184612a38565b92915050565b6000819050919050565b6000612a87612a82612a7d84612954565b612a62565b612954565b9050919050565b6000612a9982612a6c565b9050919050565b6000612aab82612a8e565b9050919050565b612abb81612aa0565b82525050565b6000602082019050612ad66000830184612ab2565b92915050565b600082825260208201905092915050565b7f6f6e6c792041646d696e73000000000000000000000000000000000000000000600082015250565b6000612b23600b83612adc565b9150612b2e82612aed565b602082019050919050565b60006020820190508181036000830152612b5281612b16565b9050919050565b7f636f6e7472616374206973206c6f636b65640000000000000000000000000000600082015250565b6000612b8f601283612adc565b9150612b9a82612b59565b602082019050919050565b60006020820190508181036000830152612bbe81612b82565b9050919050565b7f6f6e6c792042726f6b6572000000000000000000000000000000000000000000600082015250565b6000612bfb600b83612adc565b9150612c0682612bc5565b602082019050919050565b60006020820190508181036000830152612c2a81612bee565b9050919050565b7f6f6e6c792053656c6c6572000000000000000000000000000000000000000000600082015250565b6000612c67600b83612adc565b9150612c7282612c31565b602082019050919050565b60006020820190508181036000830152612c9681612c5a565b9050919050565b600081519050612cac816129df565b92915050565b600060208284031215612cc857612cc761294f565b5b6000612cd684828501612c9d565b91505092915050565b7f4e6f20546f6b656e20696e20436f6e7472616374000000000000000000000000600082015250565b6000612d15601483612adc565b9150612d2082612cdf565b602082019050919050565b60006020820190508181036000830152612d4481612d08565b9050919050565b7f6f6e6c7920757365727300000000000000000000000000000000000000000000600082015250565b6000612d81600a83612adc565b9150612d8c82612d4b565b602082019050919050565b60006020820190508181036000830152612db081612d74565b9050919050565b7f6e6f7420656e6f75676820546f6b656e00000000000000000000000000000000600082015250565b6000612ded601083612adc565b9150612df882612db7565b602082019050919050565b60006020820190508181036000830152612e1c81612de0565b9050919050565b6000606082019050612e386000830186612a38565b612e456020830185612a38565b612e526040830184612925565b949350505050565b60008115159050919050565b612e6f81612e5a565b8114612e7a57600080fd5b50565b600081519050612e8c81612e66565b92915050565b600060208284031215612ea857612ea761294f565b5b6000612eb684828501612e7d565b91505092915050565b7f7468697320636f6e747261637420646f6573206e6f742068617665207468697360008201527f20746f6b656e0000000000000000000000000000000000000000000000000000602082015250565b6000612f1b602683612adc565b9150612f2682612ebf565b604082019050919050565b60006020820190508181036000830152612f4a81612f0e565b9050919050565b6000604082019050612f666000830185612a38565b612f736020830184612925565b9392505050565b7f62726f6b657220616c726561647920646566696e656400000000000000000000600082015250565b6000612fb0601683612adc565b9150612fbb82612f7a565b602082019050919050565b60006020820190508181036000830152612fdf81612fa3565b9050919050565b7f4e487b7100000000000000000000000000000000000000000000000000000000600052601160045260246000fd5b60006130208261291b565b915061302b8361291b565b9250827fffffffffffffffffffffffffffffffffffffffffffffffffffffffffffffffff038211156130605761305f612fe6565b5b828201905092915050565b7f656e64204475726174696f6e0000000000000000000000000000000000000000600082015250565b60006130a1600c83612adc565b91506130ac8261306b565b602082019050919050565b600060608201905081810360008301526130d081613094565b90506130df6020830185612925565b6130ec6040830184612a38565b9392505050565b7f636f6e747261637420697320757365724c6f636b656400000000000000000000600082015250565b6000613129601683612adc565b9150613134826130f3565b602082019050919050565b600060208201905081810360008301526131588161311c565b9050919050565b7f6e6f7420656e6f75676820546f6b656e20696e20636f6e747261637400000000600082015250565b6000613195601c83612adc565b91506131a08261315f565b602082019050919050565b600060208201905081810360008301526131c481613188565b9050919050565b7f4e487b7100000000000000000000000000000000000000000000000000000000600052601260045260246000fd5b60006132058261291b565b91506132108361291b565b9250826132205761321f6131cb565b5b828204905092915050565b7f61646d696e207368617265000000000000000000000000000000000000000000600082015250565b6000613261600b83612adc565b915061326c8261322b565b602082019050919050565b6000606082019050818103600083015261329081613254565b905061329f6020830185612925565b6132ac6040830184612a38565b9392505050565b60006132be82612a8e565b9050919050565b6132ce816132b3565b82525050565b60006040820190506132e960008301856132c5565b6132f66020830184612925565b9392505050565b600081905092915050565b7f61646d696e000000000000000000000000000000000000000000000000000000600082015250565b600061333e6005836132fd565b915061334982613308565b600582019050919050565b600061335f82613331565b9150819050919050565b600060408201905061337e6000830185612925565b61338b6020830184612925565b9392505050565b600061339d8261291b565b91506133a88361291b565b9250828210156133bb576133ba612fe6565b5b828203905092915050565b7f5f62726f6b657220736861726500000000000000000000000000000000000000600082015250565b60006133fc600d83612adc565b9150613407826133c6565b602082019050919050565b6000606082019050818103600083015261342b816133ef565b905061343a6020830185612925565b6134476040830184612a38565b9392505050565b7f62726f6b65720000000000000000000000000000000000000000000000000000600082015250565b60006134846006836132fd565b915061348f8261344e565b600682019050919050565b60006134a582613477565b9150819050919050565b7f626c6f636b2e74696d657374616d700000000000000000000000000000000000600082015250565b60006134e5600f83612adc565b91506134f0826134af565b602082019050919050565b60006060820190508181036000830152613514816134d8565b90506135236020830185612925565b6135306040830184612a38565b9392505050565b7f656e644475726174696f6e000000000000000000000000000000000000000000600082015250565b600061356d600b83612adc565b915061357882613537565b602082019050919050565b6000606082019050818103600083015261359c81613560565b90506135ab6020830185612925565b6135b86040830184612a38565b9392505050565b7f54696d65204c6f636b65642e204861766520746f207761697400000000000000600082015250565b60006135f5601983612adc565b9150613600826135bf565b602082019050919050565b60006020820190508181036000830152613624816135e8565b9050919050565b7f7061796572000000000000000000000000000000000000000000000000000000600082015250565b60006136616005836132fd565b915061366c8261362b565b600582019050919050565b600061368282613654565b915081905091905056fea26469706673582212206634314e1ad3d0e0582a2850cf0b8d210196af6e8b5c6f227c7f56301c81f23864736f6c634300080f0033",
  "immutableReferences": {},
  "source": "// SPDX-License-Identifier: MIT\r\npragma solidity >=0.8.0 <0.9.0;\r\n\r\n//import \"@openzeppelin/contracts/token/ERC20/ERC20.sol\";\r\n\r\n//import \"hardhat/console.sol\";\r\n\r\n\r\ncontract BrokerageContract {\r\n    address public owner;\r\n    address public admin;\r\n\r\n    address public brokerAddress;\r\n    address public payerAddress;\r\n\r\n    uint256 public totalAmount;\r\n\r\n    IERC20 public token;\r\n\r\n    constructor(){\r\n        owner = msg.sender;\r\n        //--- TODO : add my address\r\n        // admin = address(0xc0526733fB1cc4DDF3E8f034Ede88A1e76899015);\r\n        admin = 0xc0526733fB1cc4DDF3E8f034Ede88A1e76899015;\r\n        // setToken(address)\r\n    }\r\n\r\n    /* --- if later wanted to change --- */\r\n    function adminSetTotalAmount(uint _amount) public onlyBroker notLocked {\r\n        totalAmount = _amount;\r\n    }\r\n\r\n    function setAdmin(address _admin) public onlyOwner notLocked {\r\n        admin = _admin;\r\n    }\r\n    /* --- if later wanted to change --- */\r\n    function setBroker(address _broker) external onlyOwner notLocked {\r\n        // require(brokerAddress == address(0), \"broker already defined\");\r\n        brokerAddress = _broker;\r\n    }\r\n\r\n    /* --- when broker first runs --- */\r\n    function setBrokerAndAmount(uint _amount) external notLocked {\r\n        require(brokerAddress == address(0), \"broker already defined\");\r\n        brokerAddress = msg.sender;\r\n        totalAmount = _amount;\r\n    }\r\n\r\n    /* --- when Payer first signs --- */\r\n    function setPayerAndFreeze() public notLocked {\r\n        // payerAddress = _payer;\r\n        require(token.balanceOf(payerAddress) >= totalAmount, \"not enough Token\");\r\n        payerAddress = msg.sender;\r\n        freezeToken();\r\n    }\r\n\r\n    function adminSetPayerAddress(address _payer) external onlyOwner notLocked {\r\n        payerAddress = _payer;\r\n    }\r\n\r\n    /*--------< INIT >--------*/\r\n    // TODO: Remove this part later\r\n    // function init(address _tokenAddress) public {\r\n    function init() public {\r\n        brokerAddress = 0xAb8483F64d9C6d1EcF9b849Ae677dD3315835cb2;\r\n        payerAddress = 0x4B20993Bc481177ec7E8f571ceCaE8A9e22C02db;\r\n        admin = 0x5B38Da6a701c568545dCfcB03FcB875f56beddC4;\r\n        totalAmount = 1000;\r\n        setToken(0xd9145CCE52D386f254917e481eB44e9943F39138);\r\n        // setToken(_tokenAddress);\r\n    }\r\n    /*<>----------------<>*/\r\n\r\n    address tokenAddress;\r\n    function setToken(address _tokenAddress) public onlyOwner notLocked {\r\n        //--- USDT contract address on BSC = 0x69bab60997a2f5cbee668e5087dd9f91437206bb\r\n        //--- USDT contract address on BSC = 0x55d398326f99059fF775485246999027B3197955\r\n        token = IERC20(_tokenAddress);\r\n        tokenAddress = _tokenAddress;\r\n    }\r\n\r\n    // function freezeToken() public onlyPayer {\r\n    function freezeToken() public {\r\n        require(token.balanceOf(payerAddress) >= totalAmount, \"not enough Token\");\r\n        // require() //--- check if payer has enough BNB (gas fee)\r\n        token.transferFrom(msg.sender, address(this), totalAmount);\r\n        emit tokenFrozen(payerAddress, totalAmount, block.timestamp);\r\n    }\r\n\r\n    event tokenFrozen(address indexed _payer, uint _amount, uint indexed _date);\r\n\r\n    /* --- when Payer Approves --- */\r\n    function payerApproves() onlyPayer external {\r\n        require(token.balanceOf(address(this)) >= 0, \"No Token in Contract\");\r\n        unfreezeToken(true);\r\n        emit payerApproved(msg.sender, block.timestamp);\r\n    }\r\n\r\n    event payerApproved(address indexed approver, uint indexed time);\r\n\r\n    /* --- when Payer Approves NOT --- */\r\n    function payerApprovesNot() onlyPayer external {\r\n        require(token.balanceOf(address(this)) >= 0, \"No Token in Contract\");\r\n        setEndDuration();\r\n        emit payerDontApprove(msg.sender, block.timestamp);\r\n        // unfreezeToken(false);\r\n    }\r\n    event payerDontApprove(address indexed approver, uint indexed time);\r\n\r\n    /* --- After Payer Approves Not, if want to withdraw --- */\r\n    function payerWithdraw() external notLocked {\r\n        unfreezeToken(false);\r\n    }\r\n\r\n    function unfreezeToken(bool _isApproved) internal notLocked userNotLocked {\r\n        require(token.balanceOf(address(this)) >= totalAmount, \"not enough Token in contract\");\r\n        // require(); //--- check if payer has enough BNB (gas fee)\r\n\r\n        //--- Broker (Deal is done)\r\n        if (_isApproved){\r\n            // uint _adminShare = totalAmount * 0.05;\r\n            uint _adminShare = totalAmount / 20;\r\n\r\n            emit dd(\"admin share\", _adminShare, msg.sender);\r\n\r\n            token.transfer(payable(admin), _adminShare);\r\n            emit unfrozen(\"admin\", _adminShare, block.timestamp);\r\n\r\n            uint _brokerShare = totalAmount - _adminShare ;\r\n\r\n            emit dd(\"_broker share\", _brokerShare, msg.sender);\r\n\r\n            // token.transfer(payable(brokerAddress), token.balanceOf(address(this)));\r\n            token.transfer(payable(brokerAddress), _brokerShare);\r\n            emit unfrozen(\"broker\", _brokerShare, block.timestamp);\r\n        }\r\n        //--- Payer (Deal is off)\r\n        else {\r\n            emit dd(\"block.timestamp\", block.timestamp, msg.sender);\r\n            emit dd(\"endDuration\", endDuration, msg.sender);\r\n            // console.log( \"endDuration:\");\r\n            // console.log( endDuration);\r\n            // console.log( \"timestamp:\");\r\n            // console.log( block.timestamp);\r\n            require(block.timestamp >= endDuration, \"Time Locked. Have to wait\");\r\n            token.transfer(payable(payerAddress), totalAmount);\r\n            emit unfrozen(\"payer\", totalAmount, block.timestamp);\r\n        }\r\n\r\n    }\r\n\r\n    function checkDuration() public view returns(uint) {\r\n        // console.log(endDuration);\r\n        return endDuration;\r\n    }\r\n\r\n    function timeNow() public view returns(uint) {\r\n        // console.log(block.timestamp);\r\n        return block.timestamp;\r\n    }\r\n\r\n    event dd(string str, uint num, address adr );\r\n\r\n    event unfrozen(string indexed toWho, uint amount, uint time);\r\n\r\n    event error(string indexed error, uint time);\r\n\r\n\r\n\r\n\r\n    /*--------< Time Lock Part >--------*/\r\n    uint public endDuration;\r\n    uint public duration = 45 days;\r\n    // uint public duration = 1 minutes;\r\n    function setDuration(uint _duration) public onlyBroker {\r\n        duration = _duration;\r\n    }\r\n\r\n    function setEndDuration() internal {\r\n        endDuration = duration + block.timestamp;\r\n        emit dd(\"end Duration\", endDuration, msg.sender);\r\n    }\r\n\r\n    modifier notTimeLocked {\r\n        require(block.timestamp >= endDuration, \"Time Locked. Have to wait\");\r\n        emit dd(\"notTimeLocked\", block.timestamp, msg.sender);\r\n        _;\r\n    }\r\n    /*<>----------------<>*/\r\n\r\n\r\n    /*--------< This part is for panic times which we want to lock every important functionality >--------*/\r\n    bool locked = false;\r\n\r\n    function lockContract() public onlyUsers {\r\n        locked = true;\r\n        emit contractLocked(msg.sender, block.timestamp);\r\n    }\r\n    event contractLocked(address indexed _byWho, uint indexed time);\r\n\r\n    function unlockContract() public onlyOwner {\r\n        locked = false;\r\n        emit contractLocked(msg.sender, block.timestamp);\r\n    }\r\n    event contractUnLocked(address indexed _byWho, uint indexed time);\r\n\r\n    modifier notLocked(){\r\n        require(!locked, \"contract is locked\");\r\n        _;\r\n    }\r\n    /*----------------<>*/\r\n\r\n    /*--------< This part is for times that they have disagreements and need to go to Judge >--------*/\r\n    bool userLocked = false;\r\n\r\n    function userLockContract() public onlyUsers {\r\n        userLocked = true;\r\n        emit userContractLocked(msg.sender, block.timestamp);\r\n    }\r\n    event userContractLocked(address indexed _byWho, uint indexed time);\r\n\r\n    function userUnlockContract() public onlyOwner {\r\n        userLocked = false;\r\n        emit userContractUnLocked(msg.sender, block.timestamp);\r\n    }\r\n    event userContractUnLocked(address indexed _byWho, uint indexed time);\r\n\r\n    modifier userNotLocked(){\r\n        require(!userLocked, \"contract is userLocked\");\r\n        _;\r\n    }\r\n    /*----------------<>*/\r\n\r\n\r\n    receive() external payable {}\r\n\r\n\r\n    modifier onlyBroker(){\r\n        require(msg.sender == brokerAddress || msg.sender == admin, \"only Broker\");\r\n        _;\r\n    }\r\n\r\n    modifier onlyPayer(){\r\n        require(msg.sender == payerAddress || msg.sender == admin, \"only Seller\");\r\n        _;\r\n    }\r\n\r\n    modifier onlyAdmin(){\r\n        require(msg.sender == admin, \"only Admin\");\r\n        _;\r\n    }\r\n\r\n    modifier onlyOwner(){\r\n        require(msg.sender == admin || msg.sender == owner, \"only Admins\");\r\n        _;\r\n    }\r\n\r\n    modifier onlyUsers(){\r\n        require(msg.sender == brokerAddress || msg.sender == admin || msg.sender == payerAddress || msg.sender == owner, \"only users\");\r\n        _;\r\n    }\r\n\r\n\r\n    /*--------< Extra maintenance functionalities >--------*/\r\n\r\n    // function withrawOtherTokens(address _tokenAddress, address _receiver) external onlyAdmin {\r\n    function withrawOtherTokens(address _tokenAddress) external onlyOwner {\r\n        // require(_tokenAddress != tokenAddress, \"This is the Frozen currency and cant get wid=thdrawn like this\");\r\n        IERC20 otherToken =  IERC20(_tokenAddress);\r\n        require(otherToken.balanceOf(address(this)) > 0 , \"this contract does not have this token\");\r\n        otherToken.transfer(admin, otherToken.balanceOf(address(this)));\r\n\r\n    }\r\n\r\n    // function test(address _address) public returns(address) {\r\n    //     //   0x69bab60997a2f5cbee668e5087dd9f91437206bb\r\n\r\n    //     IERC20 token2 = IERC20(_address);\r\n    //     // emit log(address(token2), token2, block.timestamp);\r\n    //     // console.log(\"token = \"token2);\r\n    //     // console.log(\"Address :\", address(token2));\r\n    //     return address(token2);\r\n    // }\r\n    // event log(address indexed _address, IERC20 indexed _token, string _time);\r\n\r\n    /*----------------<>*/\r\n\r\n    /*--------<  >--------*/\r\n\r\n    // function\r\n\r\n}\r\n\r\n\r\n// pragma solidity ^0.8.13;\r\n\r\n// https://github.com/OpenZeppelin/openzeppelin-contracts/blob/v3.0.0/contracts/token/ERC20/IERC20.sol\r\ninterface IERC20 {\r\n    function totalSupply() external view returns (uint);\r\n\r\n    function balanceOf(address account) external view returns (uint);\r\n\r\n    function transfer(address recipient, uint amount) external returns (bool);\r\n\r\n    function allowance(address owner, address spender) external view returns (uint);\r\n\r\n    function approve(address spender, uint amount) external returns (bool);\r\n\r\n    function transferFrom(\r\n        address sender,\r\n        address recipient,\r\n        uint amount\r\n    ) external returns (bool);\r\n\r\n    event Transfer(address indexed from, address indexed to, uint value);\r\n    event Approval(address indexed owner, address indexed spender, uint value);\r\n}\r\n",
  "sourcePath": "G:\\Work\\Projects\\brokerage-contracts\\V4-scratch\\broker\\contracts\\BrokerContract.sol",
  "compiler": {
    "name": "solc",
    "version": "0.8.15+commit.e14f2714.Emscripten.clang"
  },
  "schemaVersion": "3.4.8",
  "updatedAt": "2022-12-27T09:52:32.940Z",
  "devdoc": {
    "kind": "dev",
    "methods": {},
    "version": 1
  },
  "userdoc": {
    "kind": "user",
    "methods": {},
    "version": 1
  }
}